{
  "_format": "hh-sol-artifact-1",
  "contractName": "CrowdFunding",
  "sourceName": "contracts/EchoAid.sol",
  "abi": [
    {
      "inputs": [
        {
          "internalType": "uint256",
          "name": "",
          "type": "uint256"
        }
      ],
      "name": "campaigns",
      "outputs": [
        {
          "internalType": "address",
          "name": "owner",
          "type": "address"
        },
        {
          "internalType": "string",
          "name": "title",
          "type": "string"
        },
        {
          "internalType": "string",
          "name": "description",
          "type": "string"
        },
        {
          "internalType": "uint256",
          "name": "target",
          "type": "uint256"
        },
        {
          "internalType": "uint256",
          "name": "deadline",
          "type": "uint256"
        },
        {
          "internalType": "uint256",
          "name": "amountCollected",
          "type": "uint256"
        }
      ],
      "stateMutability": "view",
      "type": "function"
    },
    {
      "inputs": [
        {
          "internalType": "address",
          "name": "_owner",
          "type": "address"
        },
        {
          "internalType": "string",
          "name": "_title",
          "type": "string"
        },
        {
          "internalType": "string",
          "name": "_description",
          "type": "string"
        },
        {
          "internalType": "uint256",
          "name": "_target",
          "type": "uint256"
        },
        {
          "internalType": "uint256",
          "name": "_deadline",
          "type": "uint256"
        }
      ],
      "name": "createCampaign",
      "outputs": [
        {
          "internalType": "uint256",
          "name": "",
          "type": "uint256"
        }
      ],
      "stateMutability": "nonpayable",
      "type": "function"
    },
    {
      "inputs": [
        {
          "internalType": "uint256",
          "name": "_id",
          "type": "uint256"
        }
      ],
      "name": "donateToCampaign",
      "outputs": [],
      "stateMutability": "payable",
      "type": "function"
    },
    {
      "inputs": [],
      "name": "getCampaign",
      "outputs": [
        {
          "components": [
            {
              "internalType": "address",
              "name": "owner",
              "type": "address"
            },
            {
              "internalType": "string",
              "name": "title",
              "type": "string"
            },
            {
              "internalType": "string",
              "name": "description",
              "type": "string"
            },
            {
              "internalType": "uint256",
              "name": "target",
              "type": "uint256"
            },
            {
              "internalType": "uint256",
              "name": "deadline",
              "type": "uint256"
            },
            {
              "internalType": "uint256",
              "name": "amountCollected",
              "type": "uint256"
            },
            {
              "internalType": "address[]",
              "name": "donators",
              "type": "address[]"
            },
            {
              "internalType": "uint256[]",
              "name": "donations",
              "type": "uint256[]"
            }
          ],
          "internalType": "struct CrowdFunding.Campaign[]",
          "name": "",
          "type": "tuple[]"
        }
      ],
      "stateMutability": "view",
      "type": "function"
    },
    {
      "inputs": [
        {
          "internalType": "uint256",
          "name": "_id",
          "type": "uint256"
        }
      ],
      "name": "getDonators",
      "outputs": [
        {
          "internalType": "address[]",
          "name": "",
          "type": "address[]"
        },
        {
          "internalType": "uint256[]",
          "name": "",
          "type": "uint256[]"
        }
      ],
      "stateMutability": "view",
      "type": "function"
    },
    {
      "inputs": [],
      "name": "numberOfCampaigns",
      "outputs": [
        {
          "internalType": "uint256",
          "name": "",
          "type": "uint256"
        }
      ],
      "stateMutability": "view",
      "type": "function"
    }
  ],
  "bytecode": "0x6080604052346100225761001161004b565b604051610f8a61005a8239610f8a90f35b600080fd5b6100346100346100349290565b90565b9061003461003461004792610027565b9055565b61005760006001610037565b56fe6080604052600436101561001257600080fd5b60003560e01c8063075843c31461007257806307ca140d1461006d5780630fa91fa914610068578063141961bc14610063578063236b8e3a1461005e576342a4fda80361007757610731565b61070a565b6105b5565b610352565b610257565b6101f7565b600080fd5b6001600160a01b031690565b90565b6100948161007c565b0361007757565b905035906100a88261008b565b565b634e487b7160e01b600052604160045260246000fd5b90601f01601f191681019081106001600160401b038211176100e157604052565b6100aa565b906100a86100f360405190565b92836100c0565b6001600160401b0381116100e157602090601f01601f19160190565b0190565b90826000939282370152565b9092919261013b610136826100fa565b6100e6565b93818552602085019082840111610077576100a89261011a565b9080601f830112156100775781602061008893359101610126565b80610094565b905035906100a882610170565b919060a08382031261007757610199818461009b565b9260208101356001600160401b03811161007757826101b9918301610155565b9260408201356001600160401b038111610077576101dc84610088928501610155565b936101ea8160608601610176565b93608001610176565b9052565b346100775761022661021661020d366004610183565b939290926109e5565b6040519182918290815260200190565b0390f35b600091031261007757565b610088916008021c81565b906100889154610235565b61008860006001610240565b346100775761026736600461022a565b61022661021661024b565b906020828203126100775761008891610176565b6101f39061007c565b9061011681602093610286565b906102bc6102b56102ab845190565b8084529260200190565b9260200190565b9060005b8181106102cd5750505090565b9091926102e76102e0600192865161028f565b9460200190565b9291016102c0565b906102fe6102b56102ab845190565b9060005b81811061030f5750505090565b9091926103256102e06001928651815260200190565b929101610302565b60408082526100889391926103449184019061029c565b9160208184039101526102ef565b346100775761036a610365366004610272565b610d19565b9061022661037760405190565b9283928361032d565b6100886100886100889290565b9061039790610380565b600052602052604060002090565b610088905461007c565b634e487b7160e01b600052602260045260246000fd5b90600160028304921680156103e5575b60208310146103e057565b6103af565b91607f16916103d5565b8054600093929161040c610402836103c5565b8085529360200190565b916001811690811561045e575060011461042557505050565b6104389192939450600052602060002090565b916000925b81841061044a5750500190565b80548484015260209093019260010161043d565b92949550505060ff1916825215156020020190565b90610088916103ef565b906100a86104979261048e60405190565b93848092610473565b03836100c0565b6100889081565b610088905461049e565b6104ba90600061038d565b906104c4826103a5565b916104d16001820161047d565b916104de6002830161047d565b916104eb600382016104a5565b9161008860056104fd600485016104a5565b93016104a5565b60005b8381106105175750506000910152565b8181015183820152602001610507565b6105486105516020936101169361053c815190565b80835293849260200190565b95869101610504565b601f01601f191690565b91946105aa6105a260a0956105946105b1956100a89a9c9b999c61058760c08a019260008b0190610286565b88820360208a0152610527565b908682036040880152610527565b986060850152565b6080830152565b0152565b34610077576102266105d06105cb366004610272565b6104af565b926105e096949692919260405190565b9687968761055b565b6100889160e0610672610633610621610100850161060f60008801516000880190610286565b60208701518682036020880152610527565b60408601518582036040870152610527565b61064260608601516060860152565b61065160808601516080860152565b61066060a086015160a0860152565b60c085015184820360c086015261029c565b9201519060e08184039101526102ef565b90610088916105e9565b906106a3610699835190565b8083529160200190565b90816106b56020830284019460200190565b926000915b8383106106c957505050505090565b909192939460206106ec6106e583856001950387528951610683565b9760200190565b93019301919392906106ba565b60208082526100889291019061068d565b346100775761071a36600461022a565b610226610725610ee5565b604051918291826106f9565b61074461073f366004610272565b610ba9565b604051005b1561075057565b60405162461bcd60e51b815260206004820152602360248201527f54686520646561646c696e65206d75737420626520696e20746865206675747560448201526239329760e91b6064820152608490fd5b906001600160a01b03905b9181191691161790565b6100889061007c906001600160a01b031682565b610088906107b6565b610088906107ca565b906107ec6100886107f3926107d3565b82546107a1565b9055565b9160001960089290920291821b911b6107ac565b919061081c6100886107f393610380565b9083546107f7565b6100a89160009161080b565b81811061083b575050565b806108496000600193610824565b01610830565b9190601f811161085e57505050565b6108706100a893600052602060002090565b906020601f840181900483019310610892575b6020601f909101040190610830565b9091508190610883565b9060001960089091021c191690565b816108b59161089c565b906002021790565b906108c6815190565b906001600160401b0382116100e1576108e9826108e385546103c5565b8561084f565b602090601f8311600114610917576107f392916000918361090c575b50506108ab565b015190503880610905565b601f1983169161092c85600052602060002090565b9260005b81811061096b57509160029391856001969410610951575b50505002019055565b610961910151601f84169061089c565b9055388080610948565b91936020600181928787015181550195019201610930565b906100a8916108bd565b90600019906107ac565b906109a76100886107f392610380565b825461098d565b634e487b7160e01b600052601160045260246000fd5b60001981146109d35760010190565b6109ae565b919082039182116109d357565b90610a64610a7095610a6993610a5f610a4497610a56600598610a06600090565b50610a4d600098610a23610088610a1d60016104a5565b8c61038d565b9c60048e01978b8f610a3e610a378c6104a5565b4211610749565b016107dc565b60018d01610983565b60028b01610983565b60038901610997565b610997565b610380565b9101610997565b610a8c610a85610a8060016104a5565b6109c4565b6001610997565b610088610a9960016104a5565b610aa36001610380565b906109d8565b634e487b7160e01b600052603260045260246000fd5b8054821015610ae257610ad9600191600052602060002090565b91020190600090565b610aa9565b916001600160a01b0360089290920291821b911b6107ac565b9190610b116100886107f3936107d3565b908354610ae7565b80549190600160401b8310156100e15782610b3c9160016100a895018155610abf565b90610b00565b80549190600160401b8310156100e15782610b659160016100a895018155610abf565b9061080b565b90610b78610136836100fa565b918252565b3d15610b9757610b8c3d610b6b565b903d6000602084013e565b606090565b919082018092116109d357565b34610bb96100886000938461038d565b91610bc73360068501610b19565b610bd48260078501610b42565b80610beb610be6610be68387016103a5565b6107d3565b60405160009185905af1610bfd610b7d565b50610c06575050565b610c1f60056100a8930191610c1a836104a5565b610b9c565b90610997565b90610c40610c346102ab845490565b92600052602060002090565b9060005b818110610c515750505090565b909192610c72610c6b600192610c66876103a5565b61028f565b9460010190565b929101610c44565b9061008891610c25565b906100a861049792610c9560405190565b93848092610c7a565b61008890610c84565b90610cb6610c346102ab845490565b9060005b818110610cc75750505090565b909192610ce4610c6b600192610cdc876104a5565b815260200190565b929101610cba565b9061008891610ca7565b906100a861049792610d0760405190565b93848092610cec565b61008890610cf6565b90610088610d426007610d3b6000956006610d34828961038d565b019661038d565b0193610c9e565b92610d10565b6001600160401b0381116100e15760208091020190565b90610b7861013683610d48565b6100886101006100e6565b610d7f610d6c565b906000825260208080808080808089016060815201606081520160008152016000815201600081520160608152016060905250565b610088610d77565b60005b828110610dcb57505050565b602090610dd6610db4565b8184015201610dbf565b906100a8610df6610df084610d5f565b93610d48565b601f190160208401610dbc565b90610e0c825190565b811015610ae2576020809102010190565b906101f39061007c565b906100a8610ed56007610e38610d6c565b94610e4b610e45826103a5565b87610e1d565b610e61610e5a6001830161047d565b6020880152565b610e77610e706002830161047d565b6040880152565b610e8d610e86600383016104a5565b6060880152565b610ea3610e9c600483016104a5565b6080880152565b610eb9610eb2600583016104a5565b60a0880152565b610ecf610ec860068301610c84565b60c0880152565b01610cf6565b60e0840152565b61008890610e27565b610ef7610ef260016104a5565b610de0565b6000610f0281610380565b610f0f61008860016104a5565b811015610f4f5780610f2f610f2a610088610f4a948661038d565b610edc565b610f398286610e03565b52610f448185610e03565b506109c4565b610f02565b50509056fea2646970667358221220669abeaa2af5b48e41d346a940583aff76137d1a01cd9193772538e9e5a116cf64736f6c63430008140033",
  "linkReferences": {},
  "deployedLinkReferences": {}
}